:020000040800F2
:100000000000012095000008D9000008D900000870
:10001000D9000008D9000008D9000008000000003D
:10002000000000000000000000000000D9000008EF
:10003000D900000800000000D9000008D90000081D
:1000400010B5054C237833B9044B13B10448AFF312
:1000500000800123237010BD00000020000000007C
:100060006406000808B5034B1BB103490348AFF30E
:10007000008008BD000000000400002064060008A5
:1000800010F8012B11F8013B012A28BF9A42F7D042
:10009000D01A70470B480C490C4A002302E0D45890
:1000A000C4500433C4188C42F9D3094A094C0023C4
:1000B00001E013600432A242FBD300F0AFFA00F07B
:1000C00065F970470000002000000020B406000819
:1000D000000000201C000020FEE7000080B400AFFC
:1000E000BFF34F8F00BF064BDB6803F4E0620449A7
:1000F000044B1343CB60BFF34F8F00BF00BFFDE73E
:1001000000ED00E00400FA0580B400AF00BFFDE799
:1001100080B500AF09490A48FFF7B2FF0346002B3C
:1001200006D106490748FFF7ABFF0346002B01D075
:10013000002300E00123184680BD00BF7C060008B4
:10014000000800086208000880B582B000AF00F027
:1001500049F900F0F9F90346FB71FB79022B02D152
:10016000042000F0E1F9FB79032B02D1102000F00C
:10017000DBF94FF0082000F055F90346042B01D0BD
:10018000FFF7C2FF00F040F900BF0837BD4680BD51
:10019000F0B5ABB000AF3B46A0220021184600F0FE
:1001A00035FA404B3C461D460FCD0FC42B682370DB
:1001B00007F1110300221A809A703B4B7B61394B87
:1001C00007F162051C460FCC28606960AA60EB60ED
:1001D00023782B7407F1730300221A809A70334B33
:1001E00003F1410407F1200604F1200C35462346B3
:1001F000186859689A68DB680FC510341036644572
:10020000F4D13346224612781A70284BDB69BB6161
:10021000264B07F17C0403F17C050FCD0FC40FCDF5
:100220000FC42B682370214B9B6FBB67FFF78CFFBC
:1002300000F0D8F800F088F9034687F8A33097F863
:10024000A330022B02D1042000F06EF997F8A330FE
:10025000032B02D1102000F067F90023C7F8A43067
:1002600017E0D7F8A4309B0003F10820D7F8A4309A
:100270009B003A4613441B68194600F009F90346EF
:10028000042B01D0FFF740FFD7F8A4300133C7F8A3
:10029000A430D7F8A430272BE3D900F0B5F8FFF746
:1002A0001DFF00BF9006000800200008000800089D
:1002B00080B584B000AF00F095F800F045F9034632
:1002C000FB70FB78022B02D1042000F02DF9FB78A3
:1002D000032B02D1102000F027F92A4BFB600BE022
:1002E000F86800F09FF80346042B01D0FFF70CFFDD
:1002F000FB6803F50063FB60234B5B69FA689A4275
:10030000EED30023BB6015E0BB6803F1006303F587
:1003100000531D4A5169BA680A44126811461846CA
:1003200000F0B6F80346042B01D0FFF7EDFEBB68E2
:100330000433BB60144BDB690333BA689A42E3D3DE
:1003400000F062F800237B6011E07B6803F100633A
:1003500003F500531A780C4B59697B680B441B78E2
:100360009A4201D0FFF7D0FE7B6801337B60064BD9
:10037000DB697A689A42E8D3FFF70AFF00BF1037BB
:10038000BD4680BD002000080008000880B584B08C
:1003900000AFFFF7BDFE0346002B01D1FFF7F8FECB
:1003A0000C4B5B690C4A934201D0FFF781FF0A4B6B
:1003B0001B68FB60094B1B68BB60094B064A9A60CF
:1003C000FB687B607B6883F3088800BFBB68984745
:1003D00000BFFDE700080008002000080420000816
:1003E00000ED00E080B400AF044B054A5A60034BB7
:1003F000044A5A6000BFBD4680BC704700200240DE
:1004000023016745AB89EFCD80B400AF044B1B6976
:10041000034A43F08003136100BFBD4680BC7047B0
:100420000020024080B584B000AF78600423FB73E5
:1004300040F6FF7000F0B2F80346FB73FB7B042B21
:100440001ED1124B1B69114A43F0020313610F4A7C
:100450007B6853610D4B1B690C4A43F040031361E9
:1004600040F6FF7000F09AF80346FB73FB7B052B08
:1004700006D0064B1A69054941F6FD7313400B611E
:10048000FB7B18461037BD4680BD00BF00200240F0
:1004900080B584B000AF786039600423FB7300231B
:1004A000BB600F2000F07AF80346FB73FB7B042B44
:1004B00033D11C4B1B691B4A43F0010313617B685A
:1004C0003A6892B21A800F2000F068F80346FB7376
:1004D000FB7B042B17D17B680233BB603B681A0C93
:1004E000BB6892B21A800F2000F058F80346FB73E5
:1004F000FB7B052B11D00B4B1A690A4941F6FE73A1
:1005000013400B6109E0FB7B052B06D0054B1A69F4
:10051000044941F6FE7313400B61FB7B184610370C
:10052000BD4680BD0020024080B483B000AF0346CA
:10053000FB80044AFB88D36000BF0C37BD4680BCFB
:10054000704700BF0020024080B483B000AF042396
:10055000FB71114BDB6803F00103012B02D1012376
:10056000FB7113E00C4BDB6803F00403002B02D09B
:100570000223FB710AE0084BDB6803F01003002B39
:1005800002D00323FB7101E00423FB71FB791846C1
:100590000C37BD4680BC70470020024080B584B057
:1005A00000AF78600423FB73FFF7CEFF0346FB73B5
:1005B00008E000F017F8FFF7C7FF0346FB737B68FE
:1005C000013B7B60FB7B012B02D17B68002BF0D1D0
:1005D0007B68002B01D10523FB73FB7B184610378A
:1005E000BD4680BD80B483B000AF00237B60FF2395
:1005F0007B6002E07B68013B7B607B68002BF9D16C
:1006000000BF00BF0C37BD4680BC704703460244A4
:10061000934200D1704703F8011BF9E770B500263B
:100620000C4D0D4C641BA410A64209D100F01AF821
:1006300000260A4D0A4C641BA410A64205D170BDC9
:1006400055F8043B98470136EEE755F8043B9847C8
:100650000136F2E7AC060008AC060008AC0600085C
:10066000B0060008F8B500BFF8BC08BC9E4670474D
:0C067000F8B500BFF8BC08BC9E467047FF
:10067C00426F6F744C6F6164657220312E302E3175
:10068C0000000000426F6F744C6F61646572203122
:08069C002E302E310000000099
:0806A400DCF9FF7F01000000FA
:0406AC0065000008DD
:0406B00041000008FD
:10080000426F6F744C6F6164657220312E302E31EF
:1008100000000000002000080000000000000000B0
:1008200000000000000000000000000000000000C8
:1008300000000000000000000000000000000000B8
:1008400000000000000000000000000000000000A8
:100850000000000000000000000000000000000098
:100860000000426F6F744C6F6164657220312E30EE
:100870002E31000000000000000000000000000019
:100880000000000000000000000000000000000068
:100890000000000000000000000000000000000058
:04000005080000955A
:00000001FF
