:020000040800F2
:1020000000000120B5290008FD290008FD2900086D
:10201000FD290008FD290008FD2900080000000036
:10202000000000000000000000000000FD29000882
:10203000FD29000800000000FD290008A1A20008F9
:10204000B5290008FD290008FD290008FD29000820
:10205000FD290008FD290008FD290008FD290008C8
:10206000FD290008FD290008FD290008FD290008B8
:10207000A59F0008E19F0008FD290008FD29000830
:10208000FD290008FD290008FD290008FD29000898
:10209000FD290008FD290008FD290008FD29000888
:1020A000FD290008FD290008FD290008FD29000878
:1020B000FD290008FD290008FD290008759C00087D
:1020C000AD9C0008FD290008FD290008FD29000835
:1020D000FD290008FD290008FD290008FD29000848
:1020E000FD290008FD290008FD2900080000000066
:1020F00000000000000000000000000000000000E0
:102100000000000000000000FD290008FD29000873
:10211000FD290008FD290008FD290008FD29000807
:10212000FD290008FD290008FD290008FD290008F7
:10213000FD290008FD290008A1580008FD29000814
:10214000FD290008FD290008FD290008FD290008D7
:102150004D39353439205357206120423031000049
:04216000000000007B
:1021640010B5054C237833B9044B13B10448AFF3CD
:1021740000800123237010BD9000002000000000A7
:1021840038C2000808B5034B1BB103490348AFF339
:10219400008008BD000000009400002038C2000840
:1021A40010F8012B11F8013B012A28BF9A42F7D0FD
:1021B400D01A7047034613F8012B002AFBD1181AD2
:1021C4000138704781F0004102E000BF83F0004312
:1021D40030B54FEA41044FEA430594EA050F08BFBE
:1021E40090EA020F1FBF54EA000C55EA020C7FEA82
:1021F400645C7FEA655C00F0E2804FEA5454D4EBFF
:102204005555B8BF6D420CDD2C4480EA020281EAC8
:10221400030382EA000083EA010180EA020281EA00
:102224000303362D88BF30BD11F0004F4FEA013152
:102234004FF4801C4CEA113102D0404261EB410161
:1022440013F0004F4FEA03334CEA133302D05242E7
:1022540063EB430394EA050F00F0A780A4F10104A3
:10226400D5F1200E0DDB02FA0EFC22FA05F28018DD
:1022740041F1000103FA0EF2801843FA05F35941C3
:102284000EE0A5F120050EF1200E012A03FA0EFC42
:1022940028BF4CF0020C43FA05F3C01851EBE3716C
:1022A40001F0004507D54FF0000EDCF1000C7EEB89
:1022B40000006EEB0101B1F5801F1BD3B1F5001FC7
:1022C4000CD349085FEA30004FEA3C0C04F10104E6
:1022D4004FEA445212F5800F80F09A80BCF1004F0F
:1022E40008BF5FEA500C50F1000041EB045141EA91
:1022F400050130BD5FEA4C0C404141EB0101013C5A
:1023040028BFB1F5801FE9D291F0000F04BF014648
:102314000020B1FA81F308BF2033A3F10B03B3F11A
:1023240020020CDA0C3208DD02F1140CC2F10C02AA
:1023340001FA0CF021FA02F10CE002F11402D8BF08
:10234400C2F1200C01FA02F120FA0CFCDCBF41EAD4
:102354000C019040E41AA2BF01EB0451294330BDA3
:102364006FEA04041F3C1CDA0C340EDC04F1140480
:10237400C4F1200220FA04F001FA02F340EA030057
:1023840021FA04F345EA030130BDC4F10C04C4F19D
:10239400200220FA02F001FA04F340EA030029467D
:1023A40030BD21FA04F0294630BD94F0000F83F4C7
:1023B400801306BF81F480110134013D4EE77FEAAA
:1023C400645C18BF7FEA655C29D094EA050F08BFF6
:1023D40090EA020F05D054EA000C04BF19461046D7
:1023E40030BD91EA030F1EBF0021002030BD5FEA1B
:1023F400545C05D14000494128BF41F0004130BD43
:1024040014F580043CBF01F5801130BD01F0004596
:1024140045F0FE4141F470014FF0000030BD7FEA09
:10242400645C1ABF194610467FEA655C1CBF0B4604
:10243400024650EA013406BF52EA033591EA030F1B
:1024440041F4002130BD00BF90F0000F04BF002113
:10245400704730B54FF4806404F132044FF0000546
:102464004FF0000150E700BF90F0000F04BF0021BF
:10247400704730B54FF4806404F1320410F0004525
:1024840048BF40424FF000013EE700BF42004FEA20
:10249400E2014FEA31014FEA02701FBF12F07F439D
:1024A40093F07F4F81F06051704732F07F4208BF54
:1024B400704793F07F4F04BF41F40021704730B55B
:1024C4004FF4607401F0004521F000411CE700BFA7
:1024D40050EA010208BF704730B54FF000050AE02A
:1024E40050EA010208BF704730B511F0004502D52B
:1024F400404261EB41014FF4806404F132045FEA2D
:10250400915C3FF4D8AE4FF003025FEADC0C18BFD5
:1025140003325FEADC0C18BF033202EBDC02C2F1C7
:10252400200300FA03FC20FA02F001FA03FE40EA59
:102534000E0021FA02F11444BDE600BF70B54FF05D
:10254400FF0C4CF4E06C1CEA11541DBF1CEA13553B
:1025540094EA0C0F95EA0C0F00F0DEF82C4481EAA3
:10256400030621EA4C5123EA4C5350EA013518BFC3
:1025740052EA033541F4801143F4801338D0A0FBB0
:1025840002CE4FF00005E1FB02E506F00042E0FB5D
:1025940003E54FF00006E1FB03569CF0000F18BF63
:1025A4004EF0010EA4F1FF04B6F5007F64F540740B
:1025B40004D25FEA4E0E6D4146EB060642EAC6219E
:1025C40041EA55514FEAC52040EA5E504FEACE2E0B
:1025D400B4F1FD0C88BFBCF5E06F1ED8BEF1004F0E
:1025E40008BF5FEA500E50F1000041EB045170BD8A
:1025F40006F0004646EA010140EA020081EA0301CE
:10260400B4EB5C04C2BFD4EB0C0541EA045170BDC9
:1026140041F480114FF0000E013C00F3AB8014F143
:10262400360FDEBF002001F0004170BDC4F100048C
:10263400203C35DA0C341BDC04F11404C4F120050D
:1026440000FA05F320FA04F001FA05F240EA020068
:1026540001F0004221F0004110EBD37021FA04F69E
:1026640042EB06015EEA430E08BF20EAD37070BD58
:10267400C4F10C04C4F1200500FA04F320FA05F0B7
:1026840001FA04F240EA020001F0004110EBD370B9
:1026940041F100015EEA430E08BF20EAD37070BD29
:1026A400C4F1200500FA05F24EEA020E20FA04F302
:1026B40001FA05F243EA020321FA04F001F00041B1
:1026C40021FA04F220EA020000EBD3705EEA430E22
:1026D40008BF20EAD37070BD94F0000F0FD101F051
:1026E4000046400041EB010111F4801F08BF013C8A
:1026F400F7D041EA060195F0000F18BF704703F0C8
:102704000046520043EB030313F4801F08BF013D4E
:10271400F7D043EA0603704794EA0C0F0CEA13550A
:1027240018BF95EA0C0F0CD050EA410618BF52EAC4
:102734004306D1D181EA030101F000414FF00000CA
:1027440070BD50EA410606BF1046194652EA4306D8
:1027540019D094EA0C0F02D150EA013613D195EA4C
:102764000C0F05D152EA03361CBF104619460AD194
:1027740081EA030101F0004141F0FE4141F470019E
:102784004FF0000070BD41F0FE4141F4780170BD8E
:1027940070B54FF0FF0C4CF4E06C1CEA11541DBFF3
:1027A4001CEA135594EA0C0F95EA0C0F00F0A7F8F5
:1027B400A4EB050481EA030E52EA03354FEA013122
:1027C40000F088804FEA03334FF0805545EA131335
:1027D40043EA12634FEA022245EA111545EA1065FD
:1027E4004FEA00260EF000419D4208BF964244F194
:1027F400FD0404F5407402D25B084FEA3202B61AB3
:1028040065EB03055B084FEA32024FF480104FF486
:10281400002CB6EB020E75EB030E22BFB61A7546FA
:1028240040EA0C005B084FEA3202B6EB020E75EB8D
:10283400030E22BFB61A754640EA5C005B084FEAF5
:102844003202B6EB020E75EB030E22BFB61A7546C2
:1028540040EA9C005B084FEA3202B6EB020E75EBCD
:10286400030E22BFB61A754640EADC0055EA060E8E
:1028740018D04FEA051545EA16754FEA06164FEAD1
:10288400C30343EA52734FEAC2025FEA1C1CC0D17D
:1028940011F4801F0BD141EA00014FF000004FF00A
:1028A400004CB6E711F4801F04BF01430020B4F1CB
:1028B400FD0C88BFBCF5E06F3FF6AFAEB5EB030C83
:1028C40004BFB6EB020C5FEA500C50F1000041EB80
:1028D400045170BD0EF0004E4EEA113114EB5C044D
:1028E400C2BFD4EB0C0541EA045170BD41F4801120
:1028F4004FF0000E013C90E645EA060E8DE60CEA28
:10290400135594EA0C0F08BF95EA0C0F3FF43BAF44
:1029140094EA0C0F0AD150EA01347FF434AF95EAFB
:102924000C0F7FF425AF104619462CE795EA0C0FDF
:1029340006D152EA03353FF4FDAE1046194622E7AC
:1029440050EA410618BF52EA43067FF4C5AE50EA86
:1029540041047FF40DAF52EA43057FF4EBAE12E776
:102964004FEA410212F5001215D211D56FF47873B3
:10297400B3EB625212D94FEAC12343F0004343EA56
:10298400505311F0004F23FA02F018BF4042704731
:102994004FF00000704750EA013005D111F00040BB
:1029A40008BF6FF0004070474FF00000704700BF51
:1029B4000C480D490D4A002302E0D458C450043396
:1029C400C4188C42F9D30A4A0A4C002301E013606C
:1029D4000432A242FBD309F049FA09F0E9FB05F0FD
:1029E400A3FC7047000000209000002094C9000858
:1029F40090000020F0B50020FEE7000000B583B091
:102A040001A808F0ABFC00238DF807301123ADF8C2
:102A1400043001A9064808F0E5FB0223ADF80430B0
:102A240001A9044808F0DEFB012003B05DF804FBB3
:102A340000100140000C01402DE9F04391B08146A3
:102A4400FFF7DCFF07463B4C204607F0F3FE3A480D
:102A540008F0D8F80121084609F0C2F80BA807F0DD
:102A640075FF01214FF4007009F0D8F800260B9689
:102A740001258DF830508DF831504FF460230D93BB
:102A84000E964FF003088DF83C800BA9204607F002
:102A94000BFF07232A460921204607F0E9FF0723F5
:102AA40002220A21204607F0E3FF072342460E21B3
:102AB400204607F0DDFF2946204607F062FF29463D
:102AC400204607F079FF684608F096F91B4B0093FF
:102AD400CDF804900296CDF80C80049680230593DB
:102AE4004FF4807306934FF4806307932023089375
:102AF40009960A96124E6946304608F03FF929466F
:102B0400304608F0A3F92946204607F096FF2046F0
:102B140007F06DFF4FF6FF74064D284607F076FF69
:102B2400012802D1013CF8D10027384611B0BDE894
:102B3400F08300BF00240140440002404C240140C3
:102B44000800024010B50446002303608380FFF7A9
:102B540073FF204610BD000010B5A9B10C464B1EF2
:102B6400DBB2012B14D830F81100A0F50060FFF798
:102B74006BFC084B03EBC403D3E90023FFF7DEFC33
:102B8400FFF7EEFE00B210BD008801F0D9FFFAE7AE
:102B94000020F8E778C2000830B41B4B03EB401365
:102BA40093F81AC0194C2246002312F8011B8142E3
:102BB40003D00133102BF8D10AE00F2B08DC134AA1
:102BC400134404F110015A7803F8012B8B42FAD113
:102BD400214600220C4D11F8013B05EB43139B7E6B
:102BE400634503D201320F2AF5D109E00E2A07DC2E
:102BF400074B02EB040C13F8011D59706345FAD11D
:102C0400024B985430BC7047A00100200000002003
:102C14000F00002030B4FF2313700B700C4C002302
:102C24000C4D03E00133DBB2102B0FD014F801CFAD
:102C340005EB4C1C9CF81AC08445F3D191F800C0F4
:102C4400BCF1FF0F08BF0B701370EBE730BC70478B
:102C5400FFFFFF1FA001002010B504460C4B1B68AA
:102C640023B10C4B1C700A4B186810BD282009F0C6
:102C740041F90023036043608360C36003614361DF
:102C84008361C36103624362014B1860E9E700BFDB
:102C9400A8030020A003002010B50446134B1B68B2
:102CA40073B1134A002312F8011BA14219D0013356
:102CB400102BF8D10F4B00221A700C4B186810BD62
:102CC400282009F017F90023036043608360C36080
:102CD400036143618361C36103624362034B186010
:102CE400DFE7044A1370014B1868E8E7A8030020E3
:102CF40010C30008A0030020024B03EB4013987E8E
:102D0400704700BFA001002000221046064901EBD5
:102D140042131B7AC3F340039340184380B2013239
:102D2400102AF4D1704700BFA001002000221046F1
:102D3400064901EB42131B7C03F001039340184343
:102D440080B20132102AF4D1704700BFA0010020E4
:102D540030B516490022164C4FF0020E0D4614E011
:102D640005EB42131B7A13F0080F03BF05EB421364
:102D74001B7AC3F380037346037001E07346037048
:102D8400013220310130102A0FD08B7EFF2BE7D087
:102D9400013BC3EBC30C04EB8C0C9CF806C01CF089
:102DA400080FEBD1CCF38003E9E730BDA00100208C
:102DB400C000002030B4144900221046134C0D46C4
:102DC40011E0013BC3EBC30304EB83031B7B1B092F
:102DD4000D2B14BF002301239340034398B2013207
:102DE4002031102A0ED08B7EFF2BEAD105EB421343
:102DF4001B7C1B090D2B14BF0023012393400343A9
:102E040098B2ECE730BC7047A0010020C00000205D
:102E1400054B023803F500719A8820F8022F2033FD
:102E24008B42F9D1704700BFA00100200238002373
:102E3400044931F8132020F8022F1033B3F5807FB2
:102E4400F7D17047A0010020044B1A78044B03EB20
:102E540042131A7C61F301021A747047A003002024
:102E6400A0010020074B1B78074A02EB4312137C96
:102E740003F00301013918BF012161F30103137445
:102E8400704700BFA0030020A001002070B582B0ED
:102E94000C4600238DF807301E4B1D780DF10602F9
:102EA4000DF107012846FFF7B5FE9DF807300F2BFB
:102EB4001ED8013DC5EBC501174A02EB8102927988
:102EC40012F0040F16D19DF806108B420ED8134E43
:102ED4001348C25C06EB421292F810C064F3010C72
:102EE40082F810C00133DBB29942F2D2012C08D02F
:102EF40002B070BD012CFBD09DF806108B42E6D9C0
:102F0400F6E707F0E3F9C5EBC505034B03EB8503CF
:102F14009861EDE7A0030020C0000020A00100207C
:102F240000000020084B1A78084B03EB42131A7C6C
:102F3400022161F301021A741A7A02F0FB026FF3A0
:102F4400C3021A72704700BFA0030020A001002032
:102F5400094B1B78013B094AC3EBC30102EB810116
:102F64008979C3EBC30302EB830201F0FB036FF324
:102F7400C3039371704700BFA0030020C00000206A
:102F8400044B1A78044B03EB42131A7C61F30712C7
:102F94001A747047A0030020A0010020064B1B7880
:102FA400013BC3EBC303054A02EB83031A7B61F3C2
:102FB40007121A73704700BFA0030020C00000204E
:102FC40000293ED010B50A461E4B18781E4B03EB61
:102FD400401303F11001B2F800C01C4C34F810E0A7
:102FE400F44528BFF446A3F811C0B2F802C0A3F810
:102FF40016C0B2F804C0A3F818C092F806C083F84B
:103004001AC0138803FB03F3928802FB03F31B012A
:103014000F4A82FB0342DB17C3EBA213CB70C3F34B
:1030240007220A71C3F307434B71BCF1FF0F07D0AA
:10303400054B03EB40131A7C0D2161F307121A743C
:1030440010BD7047A0030020A001002090C200081A
:10305400D34D6210F8B500240A4FF86903681B6A5F
:10306400214698470546E6B23046FFF7F5FD294666
:10307400FFF7A6FF3046FFF78FFD0134102CECD18B
:10308400F8BD00BFE0AB00202DE9F04385B0064653
:103094000F4691461D461F4CD4F8008098F8004016
:1030A4000CB1032C02D198F821301BB1002005B0DB
:1030B400BDE8F0834FF40031174808F040FC78B1C4
:1030C400164A138801339BB2138040F6FF72934271
:1030D400ECD1404606F0CEFB104B00221A80E5E707
:1030E4000E4B00221A802A464946701C09F086F8C5
:1030F40037700B4B1B780B4AD35C8DF804306B1C78
:103104008DF80C30029601A9024B186806F0FEFBFC
:10311400CDE700BFA403002000540040AC0300200E
:10312400A003002020C3000808B50A4607230B218A
:10313400FFF7AAFF08BD08B50A4601230A21FFF7D5
:10314400A3FF08BD30B589B004461F4B1D682B781A
:103154000BB1032B02D195F8213013B1002009B033
:1031640030BD4FF40031194808F0E9FB78B1184A32
:10317400138801339BB2138040F6FF729342EDD162
:10318400284606F077FB124B00221A80E6E700235C
:103194000F4A1380237004930E4B1B780E4AD35CA2
:1031A4008DF8143001228DF81C2006948DF804301B
:1031B40012238DF80C301434029401AA05A9024B91
:1031C400186806F0D9FBCAE7A403002000540040A5
:1031D400AC030020A003002020C3000870B50646FD
:1031E4000C461B4B1D682B780BB1032B02D195F8B1
:1031F40021300BB100201DE04FF40031154808F0D8
:103204009EFB78B1144A138801339BB2138040F6B5
:10321400FF729342EED1284606F02CFB0E4B00229F
:103224001A80E7E70C4B00221A80094B1B6893F8BD
:10323400203003B170BD7069B169F269336A2060EE
:103244006160A260E360B38C23820120F2E700BFD7
:10325400A403002000540040AC0300202DE9F04FEB
:103264008DB007460E4600242546FF238DF82F30E7
:103274008DF82E30A44B1B78042B00F2F281DFE88A
:1032840013F005002C008401C2012C019F4B187817
:103294009F4B03EB40131B7C13F0030F06D09C4B96
:1032A40003EB40131B7A13F0040F08D00022994B50
:1032B40033F81010984B53F8200008F0BCF8934BE7
:1032C4001B78944A32F81310934A52F8230008F0FA
:1032D4007DF838BB8C4B01221A70904BD3F80080D8
:1032E40098F8003013B1032B40F0BB8198F82130DB
:1032F400002B40F0B6814FF40031894808F01FFBE1
:10330400C8B1884A138801339BB2138040F6FF7218
:10331400934240F0A681404606F0ACFA814B00226D
:103324001A809EE1794B1878FFF796FCFFF70AFFA5
:103334000028CFD195E17B4B00221A80734B1B7878
:10334400744A32F81310744A52F8230008F03EF815
:1033540010BB6E4B1B786E4800EB4310017A0A09D0
:1033640014BF01240024121B02F00F0262F30711A0
:103374000172002A68D001335A4203F00F0302F0AD
:103384000F0258BF5342DBB2604A1370002B6AD15C
:103394005D4B04221A7064E15C4B1878FFF75CFC07
:1033A40007A9FFF71BFF0128D3D1584B93F80080DE
:1033B4004FEA4812079BC3F30F2355498B52B8F1C8
:1033C400070FBDF81F3087BFF11A8BB2FB1A9BB2EF
:1033D4004F4A02EB48129380089BC3F30F23D38018
:1033E4009DF81C3013729DF82330BDF8241043EA75
:1033F4000123D3609DF8266006F0F303D12B17D088
:10340400434B03EB48110A7A42F0F0020A720B466E
:1034140007220DF1270103F1110008F043FE30BB30
:10342400012202FA08F2404B1B8823EA020325E03A
:10343400374A02EB4812137AC3F3400181F00101C9
:1034440061F3C3031372DBE7314C580104EB4312FD
:103454000021215291804FF4C870D080107A61F31A
:103464004100107287E7284B00221A70F9E001230B
:1034740003FA08F32C4A128813439BB22A4A138096
:10348400234B03EB48131A7C134602F0F001D029B6
:1034940007D026490978012904BF02F0020262F329
:1034A4000103DBB2B34222D0012303FA08F3204A1A
:1034B400128813439BB21E4A138008F101035A4237
:1034C40003F00F0302F00F0258BF5342DBB20F4A5E
:1034D4001370A3B90C4B04221A70DFF858A04FF0F4
:1034E400010B154B5B4403930494059551E10122B0
:1034F40002FA08F20E4B1B8823EA0203DBE7024BB5
:1035040000221A70ADE000BFBE000020B000002011
:10351400A0010020B0C20008D0C20008A40300200B
:1035240000540040AC030020BC000020B800002080
:10353400BA000020C000002000000020EBB213F00D
:10354400040F02D1002E00F01C81CCEBCC036E4A98
:1035540002EB83031B7B1B090D2B00F01281CCEBC8
:10356400CC0C02EB8C029379C3F3C001314343F0DA
:10357400040361F3C30393714F4540F3E98000E111
:10358400049C059D614B02221A70614B1E683378BE
:103594000BB1032B65D196F82130002B61D14FF488
:1035A40000315C4808F0CBF978B15B4A13880133E9
:1035B4009BB2138040F6FF72934252D1304606F01C
:1035C40059F9554B00221A804BE0534B00221A80C4
:1035D400524B1B780F2B10D8514A16880021012713
:1035E400D8B246FA03F212F0010F2BD10130C4B263
:1035F40001333946DAB20F2AF2D9484B00221A7045
:10360400424B03221A70424B1C6823780BB1032BE4
:1036140027D194F8213023BB4FF400313D4808F002
:103624008EF908B33C4A138801339BB2138040F6E9
:10363400FF72934215D1204606F01CF9364B002246
:103644001A800EE009B1354B1C70FFF705FB334CB3
:103654002178344B03EB4111FFF766FD23780133E6
:1036640023700DB0BDE8F08F2B4B00221A802B4B3A
:103674001B780F2B10D82C4A1088002101261C46D9
:1036840040FA03F212F0010F0CD15D1CEDB20133CC
:103694003146DAB20F2AF2D90023204A13701B4AAA
:1036A4001370DEE709B11D4B1D70204B03EB44136F
:1036B4001B7C8DF8183003F0F003D02B03D01C4B87
:1036C4001B78012B10D09DF8183003F00303012B55
:1036D40013D0124C2078FFF7BFFA06A9FFF72BFD91
:1036E400237801332370BCE79DF8183003F00202FD
:1036F40062F301038DF81830E5E706F0E7FD0B4BA4
:1037040003EB4413D861E4E7C0000020BE000020AE
:10371400A403002000540040AC030020B0000020AB
:10372400BC000020B1010020BA000020A00100204C
:10373400B8000020CCEBCC0C524A02EB8C029379FB
:10374400C3F3C001314343F0040361F3C303937132
:103754004D4B1A884D4B1F44039B03EB09054C4CFE
:10376400012017F8013B04EB43110E7C6FF30106B3
:103774000E7400FA03F31A4392B2BD42F1D1424BE4
:103784001A800BF1010B0AF11C0ABBF1090F3FF47B
:10379400F7AE0DF12E020DF12F015FFA8BF0FFF75A
:1037A40039FA9DF82F70FF2FEBD00BF1FF3C5246F6
:1037B4000021CAF80810CCEBCC03324800EB830399
:1037C400D973197459749DF82E904F454FDCDAF86B
:1037D4000850CCEBCC0300EB83039C79C4F3800446
:1037E4002A4BF918039B03EB090800200646DFF86F
:1037F400A0E00197CDF8089011F8013B0EEB4313BC
:10380400DF683D441F7AC7F3800949EA0404C7F31B
:10381400C0073E43DF7C9B8A47EA03273B1823F01B
:103824007F404145E8D1019FDDF808909560CCEBDD
:10383400CC01DFF850E00EEB81018D7964F3820551
:103844008D71C873C0F307240C74000C487423F002
:103854007F4392689A427FF671AECCEBCC03094A5F
:1038640002EB83031B7B1B090D2B8AD062E7CCEB95
:10387400CC02044B03EB82039B7913F0040F80D03A
:10388400002662E6C0000020BA00002000000020EC
:10389400A00100202DE9F04782B0104C104F04F134
:1038A400200A4FF010094FF0020834F8026FADF807
:1038B40004608DF807908DF8068057F8045F01A91D
:1038C400284607F08FFC00223146284607F0B3FD56
:1038D4005445EAD1012002B0BDE8F087AEC2000829
:1038E400CCC200082DE9F041214B1B687BB3204B6F
:1038F4001C68204B1C60FFF7CDFF002C0CBF002779
:1039040000F001070024DFF87080D8F81C00036879
:103914001B6A214698470546E6B23046FFF79CF9F4
:103924002946FFF74DFB3046FFF736F90134102CDA
:10393400EBD106F0CBFC00F11404E4B206F0C6FCB3
:10394400201A10F0800FF9D03846BDE8F081282005
:1039540008F0D0FA044600230370036180F8213094
:1039640080F82230436205F085FF014B1C60BEE7FE
:1039740094B40020A4030020E0AB002008B5074B5A
:103984001B78012914BF00220122054931F81310C4
:10399400044850F8230007F04EFD08BDA0030020A2
:1039A400B0C20008D0C200082DE9F041044606F078
:1039B4008DFC012C09D08046214B1B68834216D014
:1039C400204E214D0024214F16E0002426461F4D91
:1039D400E0B2FFF741F93146FFF7D0FF05EB44139E
:1039E4001A7C6FF301021A740134102CF0D1BDE873
:1039F400F0810134102CFAD035F8021B56F8040B70
:103A040007F0E4FC0128F4D007EB44131B7A1B09EC
:103A1400EFD107EB44131B7C03F00303012BE8D124
:103A240007EB44131B7A13F0040FE2D1E0B2FFF763
:103A340013F90121FFF7A2FF014BC3F80080D6E779
:103A4400B4000020D0C20008B0C20008A0010020C9
:103A540008B50A4B1A780A4B03EB42131B7A13F08E
:103A6400020F01D1002008BD06F030FC034B1A7888
:103A7400034B03EB4213DB69C01AF4E7A0030020F5
:103A8400A001002008B50D4B1B78013BC3EBC30319
:103A94000B4A02EB83039B7913F0020F01D1002040
:103AA40008BD06F013FC054B1B78013BC3EBC303B5
:103AB400034A02EB83039B69C01AF1E7A0030020C9
:103AC400C0000020034B1A78034B03EB4213D88841
:103AD400704700BFA0030020A00100202DE9F041A1
:103AE40082B0044600F58C76304601F07BF84FF442
:103AF4008E53ADF8043002258DF806504FF0480877
:103B04008DF807803F4F01A9384607F06BFB4FF44F
:103B1400C063ADF804308DF806508DF8078001A914
:103B2400394807F05FFB4FF40073ADF804308DF8AB
:103B3400065010238DF8073001A9384607F052FBD0
:103B440006F0C4FBC728FBD9304A138843F46063EA
:103B540013802F49304601F057F806F0B7FB00F107
:103B6400640506F0B3FBA842FBD3284A2849304633
:103B740001F04AF8002384F8383084F8393084F8A6
:103B8400153184F81431012284F8532184F8542126
:103B940084F85221FF2284F88C2184F88D21642238
:103BA40084F88E21A11E1B489C46054621F802CFAD
:103BB40003EB430255F812E08288BEF800E01EEAE7
:103BC400020F14BF00223222A1F85621232A94BFE7
:103BD40000220122A1F81C2104EB8302C2F83AC09E
:103BE400C2F8A6C0013306301B2BDFD1002384F8B2
:103BF400363084F8133184F81231204602B0BDE81F
:103C0400F08100BF0010014000080140C003002003
:103C1400B00300206CC3000870B504464FF48071F3
:103C2400794807F0AEFB00286DD194F88D31FF2B55
:103C340001D00133DBB284F88D3194F85321002A8A
:103C440068D1AA2B94BF0023012384F8533194F83C
:103C54001421134384F8143194F8533184F8383020
:103C64004021694807F08DFB00285AD194F88E3121
:103C7400FF2B01D00133DBB284F88E3194F8542148
:103C8400002A55D1AA2B94BF0023012384F8543170
:103C940094F8543184F839305C4B5B8813F0020F8C
:103CA40054D194F88C31FF2B01D00133DBB284F86A
:103CB4008C3194F85221002A4FD1AA2B94BF0023AF
:103CC400012384F8523184F83730514B9B6993F8BF
:103CD4005C3894F83620012A44D022B9012B04BF61
:103CE400012284F8122184F836304A4A474904F5FF
:103CF4008C7000F089FF012840F085804648A21EA0
:103D04000021054653E094F88D31002B93D0013BFC
:103D1400DBB290E7552B94BF0023012384F8533181
:103D24009AE794F88E31002BA6D0013BDBB2A3E7CF
:103D3400552B8CBF0123002384F8543194F815319A
:103D440098BF43F0010384F81531A1E794F88C314E
:103D5400002BACD0013BDBB2A9E7552B94BF002369
:103D64000123AEE7002BBED184F81321BBE7B2F8E0
:103D740058315BB3013B9BB228E00F2B8CBF01236E
:103D84000023A2F81E3104EB8106D6F8A63098BFB2
:103D940043F00103C6F8A630BCF81E31B3FA83F32E
:103DA4005B0922F8023F013106301B2924D001EBC4
:103DB400410355F81360838836881E42D7D1B2F880
:103DC4005831312B28BF312301339BB29446A2F8DA
:103DD4005831B2F81E61002ECFD1232B94BF00239B
:103DE4000123A2F81E3104EB8106D6F83AE04EEA2C
:103DF4000303C6F83A30CFE7084807F0DBFAC0F30C
:103E0400412084F8160170BD00100140B003002069
:103E1400E0AB0020C00300206CC300080008014090
:103E240010B50446064BD8690368DB6998471A281D
:103E340091BF14F81000024B9B6993F85D0810BD04
:103E4400E0AB00202DE9F04105460C4600220A7043
:103E5400811E31F8023F93402078034323700132DE
:103E6400082AF6D10022627005F10E0131F8023FF2
:103E740093406078034363700132082AF6D100222C
:103E8400A27005F11E0131F8023F9340A07803436C
:103E9400A3700132082AF6D10023E37095F830208C
:103EA400E270698E42EA4102D2B2E270A98E42EA1D
:103EB4008102E2702D48844606469E460127E27838
:103EC40003EB430156F81180BCF80410B8F80080E5
:103ED40018EA010F03BFD91C07FA01F149B2714670
:103EE4000A43E27001330CF1060C052BE7D10023E1
:103EF40023711E4E9E464FF0010C21795A1D02EB90
:103F0400420256F81270428C3F88174206BF0CFAE0
:103F140003F252B272460A43227101330630052B72
:103F2400EBD1134E4FF48071304607F02AFA6071DA
:103F34002846FFF775FF637943EA400363714FF442
:103F44000071304607F01DFAB0FA80F04009637939
:103F540043EA8003637195F83720B2FA82F252097A
:103F640043EAC2036371BDE8F08100BF30C30008B7
:103F74000010014070B504464FF49675104E338816
:103F840043F4606333802046FFF746FE2046FFF784
:103F940047FF2046FFF744FF2046FFF741FF204636
:103FA400FFF73EFF013DEAD1064B1D886FEA152558
:103FB40005F00E052046FFF733FF2843C0B270BD5D
:103FC400C0030020B003002010B50446084640F2A8
:103FD4001712214608F012F9002384F8143184F8EA
:103FE4001531194604EB8302C2F83A10C2F8A61040
:103FF40001331B2BF6D1002384F8133184F81231DA
:1040040010BD000009291FD8012A1FD862B1104B26
:1040140001EB410253F8120003EB420302889B8830
:104024001343038001207047094B01EB410253F80D
:10403400122001EB410103EB41039988138823EA21
:10404400010313800120704700207047002070474F
:1040540030C3000808B529B14FF40071044807F0D3
:10406400CEF908BD4FF40071014807F0D6F9F8E71E
:104074000010014038B50446002303700122427049
:1040840083701F4B1B6843B31D4B1B686360002385
:1040940084F81F3184F86031782284F8612184F82F
:1040A400D73184F8D821174B1B6803B3154B1B6811
:1040B400C4F8503204F5157000F0B9FC124B1B6AB9
:1040C400C4F8B43204F58E7304F5AE71002243F8DB
:1040D400042F8B42FBD1204638BD4FF4C87007F043
:1040E40009FF0546FFF7FAFC054B1D60CCE70620E7
:1040F40007F000FF0546FEF725FD024B1D60D5E7DE
:10410400D0030020AC000020E0AB002070B50646D0
:104114000C46204D2846FEF789FE1F4BD3F80A3083
:10412400C4F802300023A372E372237363732A4634
:1041340008E0B4F90C1032F8020B0144A1810133F8
:10414400102B09D0072BF4DCB4F90A1032F8020B57
:10415400014461810133F5E70121D6F85002FEF7ED
:10416400FBFCE0800221D6F85002FEF7F5FC20812A
:10417400B4F906205028D4BF002301235B00502A41
:10418400C8BF43F0010396F81E211340A373012016
:1041940070BD00BFD4030020B00300202DE9F04F10
:1041A40083B006460D46002481F86C4081F86D40CA
:1041B400FEF7AAFD6880FEF7B9FDA880A81DFEF7EA
:1041C400C7FDFEF7F7FDE88205F11A00FEF720FEB1
:1041D40005F13A00FEF72AFE05F15907E0B2FEF7B1
:1041E4008BFD07F8010F0134102CF7D10121D6F80B
:1041F4005002FEF7B1FC8046ADF804000221D6F867
:104204005002FEF7A9FC8146ADF8060043468045FE
:10421400B8BF0346A5F86A30B5F96C30002202F144
:104224001C0105EB4101B1F902100B441BB2013230
:10423400102AF4D1A5F86C300021D6F85002FEF70C
:104244008BFCA5F8740005F16E017068FFF7FAFDA8
:1042540000242C766C7606F58E774FF0010AA3467F
:1042640010E006F033F800F5FA7078600FE0091AF0
:1042740017292FDD0AFA04F212B213432B830134F7
:10428400102C29D0B6F8D9216B889A42E9D106F0CE
:104294001DF857F8043F9842F1D32346002CB8BFC9
:1042A400E31DDB1002AA02EB430333F9041C05EB04
:1042B4004403B3F91A00B3F93AC02B8B6A8822413C
:1042C40012F0010FD3D1BCF1080FD3DC5028D1DC9C
:1042D4005A46D2E75A46D0E7002185F876106A1D7F
:1042E40005F11500134613F8014F002C18BF41F0D7
:1042F40001018342F7D12B8B003B18BF012341EA14
:104304004303DBB285F87630B178003918BF012158
:1043140043EA810385F87630B9F1500FD4BF4FF0EA
:1043240000094FF00109B8F1500FD4BF0021012159
:1043340041EA490196F81E41214214BF012100219E
:1043440043EA410385F8763006F2651191F8784026
:1043540012F8013F23EA040301F8013F8242F5D138
:1043640096F84D2295F8763023EA020386F8D63182
:10437400B6F8EF212B8B23EA0203A6F878316A1EE4
:1043840006F2D71306F24E2112F801CF03F801CB3F
:104394008B42F9D195F8761001F001017068FFF7AE
:1043A40059FE012003B0BDE8F08F00002DE9F04173
:1043B400A2B005460021D0F85002FEF7CDFBB0F5BF
:1043C400D26F40DCB0F5BE6F4ADD6B78003B18BF9E
:1043D40001236B700123AB706868FFF71DFC05F1C6
:1043E40008016868FFF7F0FDD5F8B4321F78B34BC5
:1043F4001E886FEA162606F00E066868FFF710FDA1
:1044040040EA0604E4B2D5F8B422137803F00E03AC
:1044140013706868FFF704FDD5F8B42200F00103B7
:1044240011780B43137095F84100003818BF012030
:10443400FFF7BAFAA74219D1002405F515764FF013
:10444400020801271DE001236B70B0F5AA6F09DC97
:10445400B0F5A06F08DDAB78003B18BF0123BAE7C5
:104464000023F1E70123B6E70023B4E7FEF7F2FDEA
:10447400E2E7E2B23946304600F0E6FA01341B2C9A
:104484000FD005EB8403D3F84220002AF1D1D3F8EE
:10449400AE30002BF2D0E2B24146304600F0D4FAFE
:1044A400ECE795F81B3153B995F81A3173B9844B7D
:1044B400D86903685B6A98470446002611E0002225
:1044C400032105F5157000F0BFFAF0E7002204217E
:1044D40005F5157000F0B8FAE9E701360234102E3C
:1044E40018D06378002BF8D0227802F0F00110295C
:1044F400F3D1293305EB8303D3F80630002BECD03A
:1045040002F00F02012AE8D1F0B2FEF7A5FBFEF794
:10451400A9FCE2E76A4BD86903689B6A984704469A
:10452400002712E0337803F00F03012B22D03378F5
:1045340003F00F03022B41D0337803F00F03032B56
:1045440063D0013702340A2F71D02646237813F042
:104554003001F6D013F00F0FE4D16378033315F86C
:104564001320102918BF82F00102F9B26868FFF71E
:1045740049FDD7E77078FEF78FFBFFF769FA3378C8
:10458400B0EB931FD3D3D5F804807078FEF784FB87
:10459400337803F030034B4A11784B4A02EB411253
:1045A400127AC2F34002102B18BF82F0010202F00B
:1045B4000102F9B24046FFF725FDB8E77078FEF72F
:1045C4006BFBFFF75FFA3378B0EB931FB4D3D5F8E6
:1045D40004807078FEF760FB3A4B1B78013BC3EB19
:1045E400C3033A4A02EB83039A79C2F34002337855
:1045F40003F03003102B18BF82F0010202F0010215
:10460400F9B24046FFF7FEFC96E7D5F80480404631
:10461400FFF706FC337803F03003102B18BF80F04B
:104624000100C2B2F9B24046FFF7ECFC89E795F805
:104634001D3163BB05F5157000F044FA6A78244B0C
:104644001A700121D5F85002FEF786FA04460221B9
:10465400D5F85002FEF780FA81B2A0B2FEF7FEFD53
:104664004FF4F043ADF810304FF48053ADF8003000
:1046740004A92846FFF792FD69462846FFF746FD40
:1046840095F81C31BBB10DF11505002409E0002299
:10469400114605F5157000F0D7F9CBE70134102C5D
:1046A40009D015F8013F002BF8D0E0B2FEF7D4FA98
:1046B400FEF738FCF2E722B0BDE8F081B003002039
:1046C400E0AB0020A0030020A0010020C0000020D7
:1046D400B800002000F25F1300F5EB7213F8010F2D
:1046E40010B99342FAD170470120704700F25F136A
:1046F40000F5EB72002103F8011F9342FBD17047D0
:1047040070B505460C46084600F01EFC052801D08D
:10471400012070BD204600F0FDFB0646204600F057
:10472400F9FB711EC2B2C9B26868FFF76BFC0138AD
:1047340018BF0120EDE738B50D460024E0B2FEF7BE
:104744008BFAFFF7BFF90146284600F0A1FB0134BC
:10475400102CF3D138BD38B505460C4605F0B6FD2E
:104764000444C5F8B04238BD38B50488094B1B6809
:1047740033B12146074B1868FFF7EDFF002038BD21
:104784004FF42E7007F0B6FB0546FFF773FC014BA0
:104794001D60EEE7F40300202DE9F04105880024B4
:1047A400104E012708E033683A46E1B25868FFF733
:1047B40029FC01340A2C12D025FA04F313F0010F5A
:1047C400F7D03368002BEED14FF42E7007F092FB34
:1047D4008046FFF74FFC034BC3F80080E3E700205B
:1047E400BDE8F081F40300202DE9F04105880024A0
:1047F400104E274608E033683A46E1B25868FFF79E
:1048040001FC01340A2C12D025FA04F313F0010F31
:10481400F7D03368002BEED14FF42E7007F06AFB0B
:104824008046FFF727FC034BC3F80080E3E7002032
:10483400BDE8F081F403002008B5054B9B690268CC
:10484400017903F5016002F0BDFA002008BD00BF44
:10485400E0AB002001F17F03DBB2072B06D9481E31
:10486400C0B20F2894BF0020012070470020704779
:1048740038B50C461546FFF7EDFF01280CD0802C07
:104884000CD984F08000FEF7E7F9291E18BF012136
:10489400FEF7FCFA01200AE0002008E02046FEF7BB
:1048A400FBF9291E18BF0121FEF7CEFA012038BDFD
:1048B40070B505460C46084600F046FB052801D0B5
:1048C400012070BD204600F025FB0646204600F07E
:1048D40021FBC2B2F1B22846FFF7CAFF013818BF64
:1048E4000120EEE72DE9F04105880024104E012750
:1048F40008E0611C3A46C9B23068FFF7B9FF0134D9
:10490400102C12D025FA04F313F0010FF7D03368FA
:10491400002BEED14FF42E7007F0ECFA8046FFF72F
:10492400A9FB034BC3F80080E3E70020BDE8F08156
:10493400F40300202DE9F04105880024104E274699
:1049440008E0611C3A46C9B23068FFF791FF0134B0
:10495400102C12D025FA04F313F0010FF7D03368AA
:10496400002BEED14FF42E7007F0C4FA8046FFF707
:1049740081FB034BC3F80080E3E70020BDE8F0812E
:10498400F403002070B505460C46084600F0DCFA36
:10499400052801D0012070BD204600F0BBFAC6B244
:1049A400204600F0B7FA012814BF00240D24314634
:1049B4002846FFF74FFF0128EDD0802E07D8304658
:1049C400FEF76AF92146FEF7DBFA0020E3E786F0FA
:1049D4008000FEF741F92146FEF7E0FA0020DAE70D
:1049E40070B505460C46084600F0AEFA042801D01E
:1049F400012070BD204600F08DFA86B2C4B2214673
:104A04002846FFF727FF0128F3D0802E06D820463A
:104A1400FEF742F9FEF786FA0020EAE7A6F18000E5
:104A2400C0B2FEF719F9FEF793FA0020E1E700237C
:104A3400C3654361C31C00F11301002203F8012F75
:104A44008B42FBD17047000038B505461446052952
:104A540031D8DFE801F005191122290301200AE009
:104A6400174BD86903685B6B984703780F2B24D8DE
:104A74002B440120187138BD114BD86903689B6B16
:104A8400984710F81430F1E70D4BD86903689B6B15
:104A9400984700EB44004378E8E7094BD86903687A
:104AA400DB6B98470378E1E7054BD8690368DB6B58
:104AB40098474378DAE70020DDE70020DBE700BF12
:104AC400E0AB00202DE9F84305464369C3B11B78E8
:104AD400062B03D900234361BDE8F88305F0F6FBF8
:104AE400EB6D9842F8DB686910F8012B124B53F810
:104AF400223098470128EFD06B6909336B61EBE7EB
:104B0400C71C00F113063C464FF00009DFF82C8067
:104B140001E0B442E0D014F8013F002BF9D0214663
:104B240001F80199D8F81C00C91B03681B6CC9B2B1
:104B340098476861EDE700BF10C40008E0AB0020AF
:104B44002DE9F047054696240022244809E013196C
:104B540003EBD3735B1030F81310A94294BF1A46C9
:104B64001C46A31A012BF2DCA24233D01C4B33F9AE
:104B74001260DFF868A03AF8127033F91400801B51
:104B8400FDF772FC804689463AF81400C01BFDF715
:104B94006BFC02460B4640464946FDF7F9FD80464C
:104BA4008946E81BFDF760FC02460B464046494631
:104BB400FDF7C4FC04460D463046FDF755FC02469D
:104BC4000B4620462946FDF703FBFDF7C9FE00B25C
:104BD400BDE8F087024B33F91400F9E758C5000823
:104BE40028C4000810B50446064B1B6823B1054BC6
:104BF4001B682360204610BD012007F07BF9014BA0
:104C04001860F4E798B4002070B582B013460068C9
:104C14000E22009205F08EF901280BD10446064EAF
:104C240001252946304606F0ACFB0028F9D0204681
:104C340002B070BD0024FAE7000C014070B50446D0
:104C4400014600F0A0FA04F168052146284600F068
:104C54009AFA23462A46214604F1D00001F095FB36
:104C640004F5E06000F033FB04F21C76304601F0FA
:104C740051FC2A46314604F5E56002F015FC29464C
:104C840004F5F16003F0B4F92246294604F5016005
:104C940001F0C0FF204670BD10B504460D4BD86925
:104CA40003689B69984701684268037A63B1C4F852
:104CB4001C17C4F8202704F28C7002F0DDFE04F502
:104CC400016001F0BEFF10BD04F5E56002F006FCD2
:104CD400F1E700BFE0AB002010B5044601290ADC6F
:104CE400D03001F0D5FB204600F078FA04F16800DA
:104CF40000F074FA10BD00F5E56002F0FFFDD4F891
:104D04001C37002BF6D004F28C7003F0C7F804F5BE
:104D1400016002F00BFBEDE708B5D03001F0A2FB17
:104D240008BD08B5D03001F0B7FB08BD08B500F5E3
:104D3400E56002F0DDFD08BD08B500F5E56002F0B0
:104D4400D8FB08BD00F5F160704783684360836950
:104D540043617047016041608160027370470000E5
:104D640038B50546042937D8DFE801F003161E26B6
:104D74002E001A4C24F4FF6424F007040022214678
:104D84002846FFF7E7FF002204F5006105F1100053
:104D9400FFF7E0FF284638BD104C24F4FF6424F0EC
:104DA400070404F58054E9E70C4C24F4FF6424F070
:104DB400070404F50054E1E7084C24F4FF6424F0EC
:104DC400070404F54054D9E7044C24F4FF6424F0A8
:104DD400070404F58044D1E70024CFE7F70B002053
:104DE400026883689B1A017B40F2FF7040F6FF72F1
:104DF400002918BF104620EA030070474268836800
:104E04009B1A017B40F2FF7040F6FF72002918BF25
:104E1400104618407047436802689B1A017B40F2B1
:104E2400FF7040F6FF72002918BF10461840704703
:104E3400026883689A1AC2F30B0240F6FF7C62454B
:104E44000AD01A4602F8011BC2F30B0223F47F6353
:104E540023F00F031A438260704708B5037BA3B99C
:104E6400026883689A1AC2F30A0240F2FF7C624520
:104E74000AD01A4602F8011BC2F30A0223F4FF63A4
:104E840023F007031A43826008BDFFF7D1FFFBE755
:104E940038B505460C46090AFFF7DFFFE1B228469C
:104EA400FFF7DBFF38BDF8B51646D2B105460F460D
:104EB400026883689B1A007B40F2FF7240F6FF7120
:104EC400002818BF0A461340334493420BD8002EDF
:104ED40007DD002439462846FFF7BFFF0134A64208
:104EE400F8D13046F8BD4FF0FF36FAE701460368C3
:104EF400426893420BD01A4612F8010BC2F30A021D
:104F040023F4FF6323F007031A430A6070474FF04A
:104F1400FF30704708B50346027B7AB102684168E6
:104F24008A420ED0114611F8010BC1F30B0122F491
:104F34007F6222F00F021143196008BDFFF7D6FF0C
:104F4400FBE74FF0FF30F8E738B50546FFF7E2FF1F
:104F5400041E09DB2846FFF7DDFF031E07DB2002E2
:104F640080B2DBB2184438BD4FF0FF30FBE74FF09E
:104F7400FF30F8E75AB32DE9F04705460F461446CB
:104F840003688668F31A027B4ABBC3F30A0323440B
:104F9400B3F5006F20D2C6F30A0804EB08034FF4FC
:104FA400006928E0A9EB080A52463946304607F062
:104FB40025F9A6EB0806A044A8EB0908424607EB2E
:104FC4000A01304607F01AF94644AE601CE000209E
:104FD40070474FF0FF3018E04FF0FF3015E0C3F397
:104FE4000B032344B3F5805FF3D2C6F30B0804EB41
:104FF40008034FF480599945D4D92246394630469E
:1050040007F0FCF82644AE602046BDE8F08753B3B1
:105014002DE9F8430D461E46436801685B1A007B80
:1050240048BBC3F30A03B018834221D38C18C4F3DA
:105034000A0421F4FF6121F0070144EA010733194E
:105044004FF4006828E0A8EB04094A46394628468C
:1050540007F0D4F83219A2EB0802391B05EB09005A
:1050640007F0CCF81FE0002070474FF0FF301BE042
:105074004FF0FF3018E0C3F30B03B0188342F4D3AE
:105084008C18C4F30B0421F47F6121F00F0144EA6E
:10509400010733194FF480589845D4D9324639461C
:1050A400284607F0ABF83046BDE8F88308B5134648
:1050B4000022FFF7ACFF08BD10B4436802689B1AD6
:1050C400047B64B9C3F30A03994215D81144C1F3AC
:1050D4000A0122F4FF6222F0070211430BE0C3F33A
:1050E4000B03994208D81144C1F30B0122F47F62E7
:1050F40022F00F021143016010BC704783684360C3
:10510400704710B482684368D21A047B74B9C2F33E
:105114000A0C8C4594BF03EB0C025A18C2F30A0222
:1051240023F4FF6323F0070313430DE0C2F30B0CD6
:105134008C4594BF03EB0C025A18C2F30B0223F400
:105144007F6323F00F031343436010BC704700B523
:1051540085B00191029000238DF80C309A420CBF67
:10516400112306238DF80D3000231A460A2101A8C5
:1051740000F0D0FBC343180280B2C3F307231843E3
:1051840005B05DF804FB002303604166034600F1AB
:10519400600100229A809A6010338B42FAD17047E2
:1051A400D1B110B50C46024600239188A14205D026
:1051B40001331032062BF8D1002010BD00EB03148C
:1051C400A06820B103689B6898470028F5D00023A5
:1051D400A380A3600120F0E70020704710B50446C7
:1051E400036800EB0313986810B103685B68984781
:1051F40022680132054B83FB0213A3EBE27303EB3A
:105204004303A2EB4302226010BD00BFABAAAA2A4B
:105214008C4649B1034600209A88624505D0013086
:1052240010330628F8D1704706207047F0B583B0D4
:10523400CB69CF68FF1A8E691E44032F12D9054625
:105244000C467188FFF7E4FF05280EDC05EB00151A
:10525400A868036800971D68334662682168A847F8
:1052640003B0F0BD4FF0FF30FAE76FF00100F7E74D
:1052740008B5FFF7CDFF0528CCBF0020012008BDED
:1052840010B50C46002005F03DF8A0604FF47A7389
:10529400E36010BDB9B18C46BAB110B50346002124
:1052A4009C882CB1013110330629F9D1002010BD9E
:1052B40000EB0113A3F804C09A6019460431FFF708
:1052C400DFFF0120F3E7002070470020704710B58E
:1052D4000446002340F8083B01F0E2F8204610BDE4
:1052E40008B5006905F02EF808BD0000F0B587B0D8
:1052F4000746054600F5C36604462046FFF7E7FF68
:105304001834B442F9D10D4907F5C36001F0D4F85B
:1053140007F5C0646846FFF7DAFFAC46EE46BEE820
:105324000F00ACE80F009EE803008CE8030018357A
:10533400A542EFD1384607B0F0BD00BF88C60008CB
:105344007047F8B50446002540274FF480162368BB
:105354006BB12046FFF7C4FFB042B8BF2F46864268
:10536400A8BF064601351834402DF0D13D462846E5
:10537400F8BD000070B588B006460C4615460A46CE
:10538400022105A800F030FC079B002B41D04FF40C
:10539400807105A800F0C8FB082105A800F0C4FB33
:1053A40040F2064105A800F0BFFB002D0CBF4FF4EE
:1053B40080714FF4007105A800F0B6FB164DE86942
:1053C40003689B689847014605A800F0E1FBAB69B8
:1053D400D3F81C1705A800F0C5FBE37963B1214697
:1053E40005A800F0D5FB314605A800F0BBFB05A8D5
:1053F40000F0A6FC08B070BD00230093ADF80430A3
:10540400694602A801F058F802A905A800F0C0FBFB
:10541400E9E74FF0FF30EDE7E0AB002010B582B0D4
:105424000446006904F08EFF012801DC23680BB9EF
:1054340002B010BD606904F065FF20616369B3F5D3
:10544400801F3CBF5B0063612468684601F028F854
:10545400002269462046FFF78DFFE9E770B5044650
:105464000D46164603688B420DD1234643F8085B6C
:1054740096E8030083E803004FF47A7363610DB187
:10548400F3792BB170BD002004F03CFF2061ECE700
:105494002046FFF7C3FFF5E770B504460D461646F0
:1054A4004FF0000C634654F82C20954212D001337F
:1054B4000CF1060C402BF6D12046FFF742FF3F28A3
:1054C40010DC00EB40003246294604EBC000FFF735
:1054D400C5FF07E003EB43033246294604EBC30050
:1054E400FFF7BCFF70BD000070B582B004461F4BCF
:1054F4009B69D3F820370B43B3F1FF3F13D00D461C
:105504000022134654F822108D420FD00133063284
:10551400402BF7D12046FFF714FF06463F2814DD41
:1055240004F5C1650AE000F5C36507E003EB430336
:10553400DB0003F108052544EA7912B1284602B0DC
:1055440070BDE018FFF76AFFF8E7684600F0A8FFAF
:1055540006EB4600C6006A46294604EBC000FFF786
:105564007DFF06F108052544E8E700BFE0AB002015
:105574004B688A689B1A1B2B59D9F0B585B007462E
:105584000C46084600F095FAB0F5807F52D12046CB
:1055940000F08FFA082850D1204600F08AFA40F231
:1055A400064398424CD1204600F083FA0546B0F5F4
:1055B400807F02D0B0F5007F45D1204600F09BFAF1
:1055C400014602A800F078FF204600F087FA06465C
:1055D400204600F090FA0146684600F06DFF6846E8
:1055E40000F076FF40B91A4BD86903689B68984766
:1055F4000146684600F077FF204600F06FFA144B2E
:105604009B69D3F81C3783421FD102AA314638461E
:10561400FFF742FFB5F5807F02D0002005B0F0BD52
:10562400012202A93046FFF7A5FE0020F6E74FF05D
:10563400FF3070476FF00100F0E76FF00200EDE714
:105644006FF00300EAE70020E8E76FF00500E5E704
:10565400E0AB002080B483B000AF064B1B6923F09D
:105664001C037B60034A7B68136100BF0C37BD4693
:1056740080BC70470080024080B483B000AF144BFC
:105684001A68144B13407B607B6843F400037B600F
:105694007B6843F480037B607B6843F400237B6076
:1056A4007B6843F480437B607B6843F400537B60F6
:1056B4007B6843F400637B607B6843F400737B6026
:1056C400034A7B68136000BF0C37BD4680BC70473B
:1056D400008002400F8120FF80B483B000AFC0235C
:1056E4007B60044A7B68536000BF0C37BD4680BCB6
:1056F400704700BF0080024080B400AF044B00221A
:105704009A60034B0022DA6000BFBD4680BC70473C
:105714000080024080B483B000AF094B9A694FF611
:10572400417313407B607B6843F080037B60044AD1
:105734007B68936100BF0C37BD4680BC704700BFD7
:105744000080024080B483B000AF00237B60044A31
:105754007B68D36100BF0C37BD4680BC704700BF77
:105764000080024080B483B000AF114B03F5805336
:105774009A69104B13407B607B6843F080637B60C5
:105784007B6843F000737B607B6843F400137B60A9
:105794007B6843F004037B60054B03F580531A4692
:1057A4007B68936100BF0C37BD4680BC704700BF67
:1057B40000800240233FDEF880B483B000AF064B84
:1057C4007B60064B03F580531A467B68136000BF69
:1057D4000C37BD4680BC70470020C10200800240E7
:1057E40080B500AFFFF736FFFFF746FFFFF774FF02
:1057F400FFF782FFFFF78EFFFFF7A4FFFFF7B2FF6B
:10580400FFF7DAFF00BF80BD80B400AF164B1B6802
:10581400154A43F008031360134B03F580539B6947
:10582400114A43F4801302F5805293610E4B1B68B6
:105834000D4A43F0040313600B4B03F580539B693B
:10584400094A43F4005302F580529361064B03F571
:1058540080539B69044A43F0020302F5805293612A
:1058640000BFBD4680BC70470080024080B500AFD9
:1058740000F020F8FFF7B4FF00F0A6FF00F0C8FF27
:10588400FFF7C2FF044B03F580531A460423536108
:105894000023184680BD00BF0080024080B400AFE2
:1058A400034B4FF400225A6100BFBD4680BC7047D1
:1058B4000004014080B582B000AF00F021FE7860A2
:1058C4007B6805331B781B027A6804321278134311
:1058D4003B600E4A3B6813607B6803331B781A06EF
:1058E4007B6802331B781B041A437B6801331B78E3
:1058F4001B0213437A68127813433B60044A3B68E3
:10590400136000BF0837BD4680BD00BF4080024021
:105914004480024080B48BB000AFF860B9607A6014
:105924003B60FB68FB617B687B62BB6803F001033F
:10593400002B10D0BB68013BFA6813441B787B83AF
:105944007B8B1B029BB27A8B120A92B213431A46C8
:105954007B6A13447B62BB685B08BB6000233B62C9
:1059640016E03B6A5B00FA6913441B881B029BB276
:105974003A6A5200F9690A441288120A92B213432D
:105984007B617A6A7B6913447B623B6A01333B62C5
:105994003B6ABA689A42E4D87A6A3B68D31A7B6253
:1059A40005E07B6A9AB27B6A1B0C13447B627B6AB8
:1059B4001B0C002BF5D17B6A9BB21B029AB27B6A4B
:1059C4001B0A9BB2DBB29BB213433B833B8B002B82
:1059D40001D1002302E03B8BDB439BB218462C37FA
:1059E400BD4680BC704782B000230193FF2301931E
:1059F400019B2BB1019B013B0193019B002BF9D12E
:105A040002B0704770B504460D4616460160426008
:105A14000E2383600631103000F04EFD0023237600
:105A24004DB10D2E07D9AB89B3F5C16F05D0082B45
:105A340004BF01232376204670BD02232376FAE7B0
:105A440030B589B004460D4604F040FC104B586054
:105A54009A6801329A602A4621466846FFF7D2FFC7
:105A64009DF81830013B012B0ED8684602F08CFDDE
:105A7400044604F02BFC064A136851685B1A03447D
:105A84001360204609B030BD4FF0FF34F1E700BF8A
:105A9400F85B002003681A68B2F1FF3F01D00020D0
:105AA400704718884FF6FF73984214BF00200120F6
:105AB4007047034681688A1C4068824299BF18680F
:105AC400405A02464FF6FF709A60704708B5FFF7D8
:105AD400F0FF030243EA102080B208BD0346816848
:105AE4000A1D4068824299BF1868405802464FF028
:105AF400FF309A607047034681688A1D406882427D
:105B040099BF18684018024600209A607047000048
:105B1400044B1B68581C13F1020F08BF0120014BF2
:105B24001860704710000020836883B14368C3F590
:105B3400BE62012A06D90268D15243680233436027
:105B440000207047002383604FF0FF3070476FF0F0
:105B54000100704708B50B0243EA112189B2FFF72F
:105B6400E3FF08BD836883B14368C3F5BE62032ABB
:105B740006D90268D150436804334360002070475B
:105B8400002383604FF0FF3070476FF001007047CF
:105B940083682BB34368C3F5BE62052A12D900B5E6
:105BA400CA79A2B1026802EB030CD1F800E042F812
:105BB40003E08B88ACF8043043680633436000206C
:105BC4005DF804FB002383604FF0FF3070470168E9
:105BD40001EB030C4FF0FF32CA50ACF80420EBE7A2
:105BE4006FF001007047000070B504460D4616467C
:105BF400002303604360836000F02EFE2060D8B170
:105C0400012D21D0022D15D14FF4C165FFF780FF7E
:105C1400A06031462046FFF7BBFF0C4BD8690368F0
:105C24009B68984701462046FFF7B2FF2946204665
:105C3400FFF77AFF204670BDFFF7D5FE00F00CFE9B
:105C440020600028DCD1F5E70825DFE7E0AB002081
:105C540038B50446002303604360836009B92046D5
:105C640038BD1046FFF75DF80546C379002BF6D022
:105C740000F0F2FD2060A0B1FFF74AFFA0602946C2
:105C84002046FFF785FF0B4BD86903689B6898474C
:105C940001462046FFF77CFF08212046FFF744FF1A
:105CA400DDE7FFF7A0FE00F0D7FD20600028E3D178
:105CB400D5E700BFE0AB002038B58368ABB105463B
:105CC40014464368C3F5BE62944209D8006822466C
:105CD400184406F093FA6B6823446B60204638BD81
:105CE400002383604FF0FF30F9E76FF00100F6E71F
:105CF40038B504461D468368CBB108466168C1F5D2
:105D0400BE639D4202D90020A06011E02B46D4F866
:105D140000C06144FFF77BF9002805DB854203DB03
:105D240063680344636003E00020A06000E0002097
:105D340038BD08B513460022FFF7DAFF08BD00009E
:105D44008368ABB110B504460C4A12689A420AD172
:105D540002F042FC6168206800F0C6FD0023A360E5
:105D640048B9606810BD002383606FF00200F9E752
:105D74006FF0010070476FF00300F3E7100000209C
:105D8400024B00221A609A60704700BFF85B002043
:105D9400F8B54D688B68ED1A132D01D80020F8BDB5
:105DA40007460C460846FFF784FE00F0F002402A3E
:105DB40014D100F00F039E00132E11D9AE4201D965
:105DC4000020ECE72046FFF781FEB0420AD3A84248
:105DD4000AD8801BF860BE600120E0E70020DEE7FF
:105DE4000020DCE70020DAE70020D8E710B40E4BEF
:105DF4009C6900231A4608E021FA03F2D2B2FF3A62
:105E040018BF01220833202B0AD0002AF4D0D4F87A
:105E14001C074840D84010F0FF0FF3D0002000E0EA
:105E2400012010BC704700BFE0AB002038B5044629
:105E34000D460846FFF752FE20602846FFF74EFE47
:105E44000546606001462046FFF7D0FF10B1281ECA
:105E540018BF012038BD8368142B0CD070B50546DB
:105E64000E4600243046FFF739FE0434AB68143B79
:105E7400A342F7D870BD704701F47F41B1F5C06FFC
:105E840009D0B1F5885F08D0B1F5807F0CBF03233A
:105E94000023037470470123FBE70223F9E70000A2
:105EA400F8B504460D461646002303740B688A6849
:105EB40013444361FFF76CFF08B92046F8BD284638
:105EC400FFF70CFE0F4B0340002BF6D12846FFF7DB
:105ED400F0FD07462846FFF7ECFD29462046FFF76C
:105EE400A5FF0028E9D029462046FFF7B4FF05F1B5
:105EF400100221683046FFF7CFFA39462046FFF7F3
:105F0400BBFFDAE70000BFFF026840681044704737
:105F140008B5FFF709FE08BD08B5FFF7CDFE08BDBB
:105F240008B5FFF706FF08BD8368BBB1C268AAB114
:105F340010B5036841680B449B1AC3F3072141EA77
:105F440003235380C468217801F00F016389002280
:105F540089002046FFF7DEFC608110BD00238360CA
:105F6400704710B50446FFF7DFFF2046FFF7E8FE51
:105F740010BD08B502290BD003290ED0012902D087
:105F84000023836003E04FF4D061FFF7C1FF08BD35
:105F94004FF48C51FFF7BCFFF9E74FF4C071FFF7E2
:105FA400B7FFF4E7C818407803EB000C944517D802
:105FB40000B503F1020C11F80C2002F1030E864522
:105FC4000CD808488069D0F81C070A441A4442F8DF
:105FD400010C11F80C30043301F80C305DF804FBAB
:105FE400704700BFE0AB0020F8B50C461944487870
:105FF400DF1CE15D11F00F0C14BF082504251E18E9
:10600400964225D89E1CA25D013A05EB020E8645F8
:106014001FD81344E718BCF1000F05D0104A926949
:10602400D2F81C27E2500437002004F059F940F05C
:106034000042130E43EA0063110201F47F010B4393
:10604400120A02F47F4213433B60A35D1D44A5552D
:10605400F8BD01F0F003F02BFAD01031E155F7E769
:10606400E0AB0020002A00F0DC80F8B507460D46BE
:10607400164600240CE0042306E00B2304E02B194D
:106084005B78002B00F0CC801C44A64240F2C88010
:106094002B5D03F07F03013B512B00F2C18001A271
:1060A40052F823F0216200087F6000088360000832
:1060B400256200082562000825620008F1610008D5
:1060C4007B60000803620008256200087B6000080A
:1060D4007B6000082562000825620008256200082C
:1060E4002562000825620008256200082562000870
:1060F4007B6000082562000825620008256200080C
:10610400256200082562000825620008256200084F
:10611400256200082562000825620008256200083F
:10612400256200082562000825620008256200082F
:10613400256200082562000825620008256200081F
:10614400256200082562000825620008256200080F
:1061540025620008256200082562000825620008FF
:1061640025620008256200082562000825620008EF
:1061740025620008256200082562000825620008DF
:1061840025620008256200082562000825620008CF
:1061940025620008256200082562000825620008BF
:1061A40025620008256200082562000825620008AF
:1061B40009620008256200082562000825620008BB
:1061C400256200082562000825620008256200088F
:1061D400256200082562000825620008256200087F
:1061E40025620008256200081B6200082346324627
:1061F40029463846FFF7D6FE2B195B7841E72B1961
:106204005B783EE72346324629463846FFF7ECFEE4
:106214002B195B7835E72B195B7832E7012333E7D9
:10622400F8BD7047074B1A884FF6FF739A4205D0A2
:10623400044B1888013080B218807047014B00224B
:106244001A80F5E714000020F8B50446282B05D879
:106254000F4616461D4613F0030F02D00023A36019
:10626400F8BD9908453189B2FFF752FE0021204656
:10627400FFF74EFEFFF7D6FF01462046FFF76AFC04
:1062840040212046FFF744FE31462046FFF771FEC9
:1062940000212046FFF73CFE0E4B9B69D3F81C17E8
:1062A4002046FFF75FFC39462046FFF75BFC002DD4
:1062B400D6D0A368002BD3D0266863681E442A4630
:1062C40006992046FFF728FE2A4631462046FFF766
:1062D400C9FEC5E7E0AB0020F0B583B004460E4626
:1062E40017461D460E4B986900F21C7000F01DF90C
:1062F40001462A462046FFF7ABFC0023E360A3686F
:1063040013B9204603B0F0BD236862681344E36008
:10631400002300933A4631462046FFF795FFF0E705
:10632400E0AB0020F0B583B004460D4616461F4688
:106334000E4B986900F21C7000F0F7F80146089AB9
:106344002046FFF785FC0023E360A36813B92046C9
:1063540003B0F0BD236862681344E36000973346DA
:10636400032229462046FFF76FFFF0E7E0AB002049
:1063740038B504460D46FFF793FD2B68AA6813440D
:10638400A3610023E361204638BDF8B504460F46F7
:1063940016461D46FEF7AAFFC4F82076C4F8246604
:1063A400C4F828562046F8BD70B586B0CB69CC68D1
:1063B400E41A8A69D618D0F82806D0F81C573DB3D9
:1063C400D35A082B27D14B6914330090F21A096869
:1063D40002A8FFF7A7FF002102A8FFF799FD02A872
:1063E400FFF792FD0546002102A8FFF791FD221F49
:1063F400311D02A8FFF790FD00231A462146A81E6E
:10640400FFF788FA288002A8FFF7ABFD06B070BD3D
:106414006FF00100FAE76FF00100F7E710B588B0FC
:10642400044602466846FFF7A3FF9DF81030022B8E
:1064340012D0032B05D0012B08D04FF0FF3008B049
:1064440010BD69462046FFF7AFFFF8E76946D4F868
:106454002006FEF7EBFEF2E76946D4F82406FEF7C1
:10646400E5FEECE738B505460C460B7E012B04D05F
:10647400022B0AD06FF0010038BD0846FFF70AFB73
:1064840021462846FFF7CAFFF6E7FFF771F8F3E75E
:1064940008B5FEF755FF08BD08B5FFF725F808BD98
:1064A40030B400240025C0E9004530BC7047D1E970
:1064B4000023C0E90023704700220023C0E9002321
:1064C40029B10A6802608B8883800123C3717047F5
:1064D400431E053013F8012F1AB98342FAD1012063
:1064E40070470020704710B40468426808684B681D
:1064F4009A4208BF844214BF0120002010BC704798
:1065040008B5034BD86903689B68984708BD00BF6A
:10651400E0AB0020002202606FF07F4141608260A6
:10652400704701604260836070470846704700000E
:1065340080B582B000AF78600021786800F052F82E
:106544007B6801337B607B68092B01D900237B6066
:10655400034A7B68136000BF0837BD4680BD00BF97
:10656400D4AB002080B489B000AFF860B9607A6021
:106574003B60FB681B01BA681344BB61FB680133D1
:10658400FB61FA697B689A4201D30023FB61FB69D2
:106594001B01BA6813447B61BB6A43F4BF6343F0D5
:1065A4000603BA695360FA683B681A4413465B00F1
:1065B40013445B021A460A4B1A44BB699A60BB69CE
:1065C4009B689A1CBB699A607A69BB69DA60BB698B
:1065D400FA6A1A6000BF2437BD4680BC704700BF0A
:1065E400045C002080B584B002AF786039603B68F9
:1065F40043F000433B603B6801934FF480430093B6
:1066040000230A2203497868FFF7ACFF00BF08376C
:10661400BD4680BD04AB002080B584B002AF786075
:1066240039603B6843F480133B603B68019300236B
:1066340000930A23032204497868FFF793FF00BFFD
:106644000837BD4680BD00BFA4AB002080B485B030
:1066540000AF1F4B1B681B011E4A13447B607B6801
:106664001B683B603B68002B02DB194B1B6829E06D
:10667400174B1B68FB600A23BB600023BB600DE063
:10668400FB680133FB60FB68092B01D90023FB6025
:106694003B68002B06DABB680133BB60BB68092B7F
:1066A400EED900E000BFBB68092B01D90A2309E039
:1066B4007B681B683B603B68002B02DB044B1B6858
:1066C40000E0FB6818461437BD4680BC704700BF25
:1066D400D4AB002004AB002080B582B000AFFFF73C
:1066E400B5FF78607B68092B01D9002307E078683F
:1066F40000F00AF838607868FFF71AFF3B6818461C
:106704000837BD4680BD000080B588B000AF786012
:1067140001F062FF0346FB837B681B01284A134494
:10672400BB61BB691B687B617B6903F40073002B4D
:1067340004D07B6903F48073002B02D16FF014033F
:1067440039E07B6903F40043002B04D17B6903F433
:106754008043002B02D06FF015032CE07B691B0CE7
:10676400C3F30D033B613B69272B03D93B69B3F5A5
:10677400BE6F02D96FF016031DE07B6903F48053EA
:10678400002B07D07B6903F02003002B02D16FF0AC
:10679400180310E07A6813465B0013445B0202336B
:1067A400084A1344FB603B69043B3B613969F86860
:1067B400FFF746F9034618462037BD4680BD00BFA3
:1067C40004AB0020045C002080B582B000AF00233D
:1067D4007B6007E04FF480117868FFF71DFF7B684A
:1067E40001337B607B68022BF4D9064B00221A60CC
:1067F400054A064B02F580521361002318460837F8
:10680400BD4680BDD8AB002000800240A4AB002070
:1068140080B582B000AF00237B6006E00021786879
:10682400FFF7E0FE7B6801337B607B68092BF5D9B9
:10683400064B00221A60064A064B02F58052D360CA
:10684400002318460837BD4680BD00BFD4AB0020E6
:106854000080024004AB002080B485B000AF114B2F
:106864001B681B01104A1344FB60FB681B68BB6078
:10687400BB68002B01DA00230EE00A4B1A681346AA
:106884005B0013445B0203F57053084A13447B60B6
:106894007B6802337B607B6818461437BD4680BC36
:1068A400704700BFD8AB0020A4AB0020045C0020DC
:1068B40080B400AF0B4B03F580535B6903F0040312
:1068C400002B05D0074B03F580531A46042353616C
:1068D400044B03F580531A460023536000BFBD46A2
:1068E40080BC70470080024080B584B000AF7860FF
:1068F4003960144B1B681B01134A1344BB60114BD2
:106904001B680133FB60FB68022B01D90023FB6089
:10691400FB681B010C4A13441A46BB68DA60BB6867
:106924003A685A607A68BB689A60BB68074A1A601A
:10693400044AFB681360FFF7BBFF002318461037B7
:10694400BD4680BDD8AB0020A4AB0020000010B031
:1069540000697047007F80F0010070472DE9F04125
:1069640084B004460D4617461E46DDF828800368A9
:106974009B68984720BB35B3B8F1070F26D9CDF8EB
:1069840000803B462A46314602A800F0B6F8BDF81E
:106994000A30F3B1A2899A421ED1A069FEF720FA07
:1069A400039A82421BD8BDF80830A380A560083A38
:1069B40006F10801A069FEF7DDFA04B0BDE8F08134
:1069C4006FF00200F9E74FF0FF30F6E76FF00500D3
:1069D400F3E76FF00100F0E76FF00300EDE76FF00D
:1069E4000400EAE710B4064C04604FF0000CA0F871
:1069F4000CC04261816180F81CC010BC704700BFAC
:106A040098C6000800230377818901B9704710B53F
:106A140004464069FEF7C4FB0023A38110BDF8B50A
:106A24001E46037F53B904460D46174631B1002A6A
:106A340008BF00264069FEF71BFC00B1F8BDA58124
:106A4400E7812661224629466069FEF723FC01237B
:106A54002377F3E730B589B0044680691030FEF738
:106A6400DAF9B0F5007F02D8054610B930E04FF4EA
:106A7400007523690BB3E289A18906A800F05FF8C9
:106A840063695B6E06AA2169684600F073F8A16920
:106A94002A461031684600F08BF8684600F0ADF8DD
:106AA400002810DC0B4B5B6913F0020F10D1A069B6
:106AB40029461030FEF700FB0AE0A0692946103091
:106AC400FEF7FAFAD7E7A06929461030FEF7F4FA80
:106AD40009B030BDE0AB002010B5044603689B68E4
:106AE400984700B110BDA0691030FEF794F9002852
:106AF400F8D02046FFF7AEFFF4E770B504468C46A5
:106B0400049900254580072912D91046BCF80020B5
:106B14002280BCF80260BCF804201502ADB245EA3C
:106B2400122565608D4203D8BCF8062012B9668030
:106B3400204670BD00221946FEF709FBF7E70180E5
:106B4400428000224260704738B5836803B938BD7B
:106B540004460D460988FFF7DBF969882046FFF7EC
:106B6400D7F900212046FFF7D3F900212046FFF78B
:106B7400CFF9ECE7F8B504460F4616461D46022247
:106B8400FFF7AAFB00236361A3680BB92046F8BD95
:106B94002046FFF7B9F9606131462046FFF7D4FF7C
:106BA4000022D5F81C173846FEF7D1FA2061EDE72C
:106BB40008B5FFF7B5F908BD8368EBB110B5044615
:106BC4004369BBB1FFF7A0F96369C01A81B2C0F38E
:106BD400072040EA01209880226900230A44606962
:106BE400FEF798FE4FF6FF73002818BF034662694C
:106BF400D38010BD8360FCE7704783683BB110B558
:106C04000446FFF7D9FF2046FFF7ABF910BD4FF05C
:106C1400FF30704770B504460E4615460321FEF753
:106C24009FF83246214604F12000FFF7DBFE25647D
:106C3400002384F8443084F8453084F846302046F4
:106C440070BD08B5002348F6130211462030FFF743
:106C5400E6FE08BD70B5A2B00D465A2904BF49F23C
:106C64001323C38512B14FF0FF33036300F1100403
:106C740029462046FEF7F1F84FF4F043ADF8103002
:106C84004FF48053ADF800304D4B1B68002B00F0DF
:106C940083804B4E04A93068FDF780FA3368002BDB
:106CA40000F084806946464B1868FDF72FFABDF959
:106CB40084209DF98530DBB292B243EA0223ADF819
:106CC40084300AAA12A8844632F9023FC3F307218A
:106CD4009BB241EA0323138030F9023FC3F3072137
:106CE4009BB241EA032303806245EDD1BDF97A20CA
:106CF4009DF97B30DBB292B243EA0223ADF87A30DD
:106D0400BDF97C209DF97D30DBB292B243EA0223C7
:106D1400ADF87C30DDF802301A0E42EA0362190243
:106D240001F47F010A431B0A03F47F431343CDF8A4
:106D34000230BDF90A209DF90B30DBB292B243EA6E
:106D44000223ADF80A30BDF90C209DF90D30DBB2F9
:106D540092B243EA0223ADF80C30BDF906209DF946
:106D64000730DBB292B243EA0223ADF80630BDF934
:106D740008209DF90930DBB292B243EA0223ADF850
:106D84000830792D07BF0F226946772204A92046CF
:106D9400FEF7F0F822B070BD4FF42E7005F0AAF89B
:106DA4000646FDF767F9064B1E6072E74FF42E7036
:106DB40005F0A0F80646FDF75DF9014B1E6071E78A
:106DC400F403002080F84510032380F846308264E1
:106DD4007047000038B5044648F61303C385836C36
:106DE400036300F110058A212846FEF736F80521D1
:106DF4002846FEF74DF894F845102846FEF72DF87E
:106E04000C4B1B685BB10B4B1868FDF709F8014686
:106E14002846FEF722F82846FEF770F938BD4FF4ED
:106E2400C87005F067F80446FCF758FE014B1C6077
:106E3400E9E700BFD003002038B504460D46FEF74D
:106E440083F8052801D0012038BD2846FEF762F8F2
:106E540084F84C002846FEF75DF8C0B2012804D936
:106E6400002384F84D300120EEE784F84D00002023
:106E7400EAE738B5154600F110042046FDF7EDFFAA
:106E840000212046FDF7E9FF04212046FDF7E5FF38
:106E940029462046FDF7E1FF38BD000038B50C4611
:106EA40077212046FDF7D9FF00212046FDF7D5FFC5
:106EB4003B212046FDF7D1FF0C2211492046FEF765
:106EC40059F8042200212046FDF7EDFF0D4DE86935
:106ED40003685B699847014608222046FEF74AF892
:106EE400E8690368DB689847142201692046FEF7C5
:106EF40041F80C2200212046FDF7D5FF38BD00BF24
:106F0400A8C60008E0AB002030B583B00446FEF705
:106F14001BF885B22046FDF7FDFF20B101281FD0E4
:106F2400012003B030BD0C2D06D00122B121204632
:106F3400FFF79FFF0120F4E7082269462046FEF789
:106F4400B5F81E4BD86903681B6969469847021E49
:106F540018BF0122B1212046FFF78BFF0020E0E794
:106F6400042D06D00122B1212046FFF782FF012023
:106F7400D7E71034B1212046FDF76FFF00212046EA
:106F8400FDF76BFF24212046FDF767FF0121204612
:106F9400FDF763FF0A4B1B6833B12146084B1868A1
:106FA400FDF7C9FB0020BCE74FF42E7004F0A2FFEC
:106FB4000546FDF75FF8024B1D60EEE7E0AB0020ED
:106FC400F403002010B588B00446FDF7BDFF232864
:106FD40002D0012008B010BD202269462046FEF7E9
:106FE40065F80A496846FBF7DBF860B9012384F8C1
:106FF4004430074BD86903685B689847013818BF69
:1070040001204000E6E70120E4E700BFB4C6000821
:10701400E0AB0020F0B583B00446FDF7EFFE064672
:1070240080B1012739462046FEF76BF82046FDF76C
:1070340071FF10F0FF0512D12046FDF7DFFE064672
:107044000028EFD1711E2046FEF75BF82046FDF7BD
:10705400E2FE01462046FEF72FF8002099E0022EBA
:10706400F0D902212046FEF74CF8A36A2363A38CCF
:10707400E38502220DF106012046FEF717F8BDF85C
:107084000620130243EA1223ADF806302046FDF72A
:10709400B5FEBDF806100339884261DB2046FEF7D1
:1070A40030F8A5F1740058286BD8DFE810F06500BB
:1070B4006A0074006A007A006A006A006A006A0062
:1070C4006A006A006A0080006A0098006A00B000E2
:1070D4006A00B9006A00D1006A00E9006A006A0027
:1070E4006A006A006A006A006A006A006A00F300C3
:1070F4006A00FF006A006A006A000B016A00190155
:107104006A006A006A006A006A006A006A006A002B
:107114006A006A006A006A006A006A006A006A001B
:107124006A006A006A0022016A006A006A006A0052
:107134006A006A006A006A006A006A006A006A00FB
:107144006A006A006A006A006A006A006A006A00EB
:107154006A006A006A006A006A0026016A002E0159
:107164002046FDF7CBFF2046FDF755FE014620469D
:10717400FDF7A2FF00200CE0002275212046FFF756
:1071840069FD2046FDF747FE01462046FDF794FFC2
:10719400012003B0F0BD04F110012046FFF77EFE8C
:1071A400EFE7002279212046FFF754FDE9E75D4B24
:1071B4001B6853B121465B4B1868FDF779FB024607
:1071C40081212046FFF755FEDBE74FF42E7004F0D3
:1071D40091FE0546FCF74EFF524B1D60EAE7514B0A
:1071E4001B6853B121464F4B1868FDF7F9FB024663
:1071F40083212046FFF73DFEC3E74FF42E7004F0D1
:1072040079FE0546FCF736FF464B1D60EAE701238D
:1072140084F84430002285212046FFF72AFEB0E797
:10722400404B1B6853B121463E4B1868FDF7AAFB3F
:10723400024687212046FFF71CFEA2E74FF42E707A
:1072440004F058FE0546FCF715FF364B1D60EAE7CF
:10725400344B1B6853B12146324B1868FDF750FA82
:10726400024689212046FFF704FE8AE74FF42E7078
:1072740004F040FE0546FCF7FDFE2A4B1D60EAE7DC
:1072840021462046FFF7D8FD02468B212046FFF712
:10729400F0FD76E7244BD8690368DB6A21469847FA
:1072A400024695212046FFF7E4FD6AE71E4BD869A4
:1072B40003681B6B21469847024697212046FFF737
:1072C400D8FD5EE704F110059B212846FDF7C5FDB6
:1072D400154BD86903685B6C2A462146984750E7EA
:1072E4002046FFF76FFE02469D212046FFF7C1FDB1
:1072F40047E72046FFF708FE43E7206CFDF722FD31
:1073040004F1100100F0BAFE3BE7206CFDF71AFD12
:10731400214600F08BFE0246CD212046FFF7A9FD51
:107324002FE700BFF4030020E0AB002038B504468B
:107334002030FFF70FFB00B138BD2046FFF76AFE8F
:1073440000285AD1554B1B68002B5BD0534B18684F
:10735400FDF7C0F900285FD102F0B8FF504BA3FB42
:1073640000239B094FF47A7202FB1300B0F5967F59
:1073740003D294F84630012B6CD094F84630032B9A
:1073840068D002F0A3FF464BA3FB00239B094FF4F4
:107394007A7202FB1300B0F5967F62D802F096FF72
:1073A4003F4BA3FB00239B094FF47A7202FB1300AB
:1073B400B0F5967F03D23B4B1B78012B59D002F0DA
:1073C40085FF374BA3FB00239B094FF47A7202FB22
:1073D4001300B0F5967F5CD804F110052846FDF73C
:1073E4008DFE2846FDF717FD0028A5D194F84430FA
:1073F400002BA1D001F0B0F89EE704F11000FDF7D6
:107404007DFE99E74FF42E7004F074FD0546FCF7F9
:1074140031FE224B1D6099E749F61343E3850122AF
:1074240075212046FFF716FC04F11000FDF766FEF7
:107434001A4B1B6823B1194B1868FDF757F97BE702
:107444004FF42E7004F056FD0446FCF713FE134B64
:107454001C60F0E7022384F846302046FFF7BAFCAC
:107464006AE794F84630022B04BF012384F84630BF
:1074740094E70C4B00221A7048F61303E3850122AB
:107484005A212046FFF7E6FB04F11000FDF736FE13
:1074940052E7044B01221A709EE700BFF403002058
:1074A400D34D62101600002070B504460D461646F2
:1074B4000021FDF755FC3246214604F12000FFF778
:1074C40091FA002323646364A36484F84C30236535
:1074D400656584F85830E365204670BD08B54FF003
:1074E400FF334FF486424FF488412030FFF797FA78
:1074F40008BD08B52030FFF785FA08BDF0B585B0A2
:1075040005460E460192009300F110042C4F04220C
:1075140039462046FDF72EFD042205F15C01204684
:10752400FDF728FD042207F108012046FDF722FD9E
:10753400102200212046FDF7B6FC224BD8690368CF
:107544009B689847014602A8FEF7B1FF062202A9EC
:107554002046FDF70FFDCA2200212046FDF7A3FCBB
:10756400042219492046FDF705FD02221749204649
:10757400FDF700FD31462046FDF76FFC019B43B942
:10758400009B93B9012212492046FDF7F3FC05B094
:10759400F0BD02220F492046FDF7ECFC04220DEB5E
:1075A40002012046FDF7E6FCEAE702220A492046EA
:1075B400FDF7E0FC042269462046FDF7DBFCE1E729
:1075C40050C20008E0AB0020C8C60008D0C60008BE
:1075D400DCC60008D4C60008D8C600082DE9F04768
:1075E40088B00546884617461E464AF6C0030493EB
:1075F4006FF07F430393042207A9FDF757FD04218D
:107604002846FDF759FD794B079A9A4205D04FF069
:107614000D09484608B0BDE8F087042207A92846AA
:10762400FDF744FD04212846FDF746FDEA6D079B5E
:107634009A4202D04FF00D09EBE708212846FDF7E6
:107644003BFD042206A92846FDF730FD0C212846FF
:10765400FDF732FD082201A92846FDF727FD012385
:107664008DF80B30624BD86903689B6898470146D4
:10767400082201A804F016FDA8B9D0212846FDF778
:107684001BFD042207A92846FDF710FD0421284606
:10769400FDF712FD574B079A9A4240F0A1804FF034
:1076A4000009CA4613E04FF00D09B2E72846FDF77A
:1076B40031FCC0B2012840F096802846FDF72AFC30
:1076C4005FFA80F903E0E1B22846FDF7F5FC2846AD
:1076D400FDF720FC0446C3B2FF2B77D02846FDF704
:1076E4009AFB002872D0CDF81CA05FFA84FCBCF190
:1076F400330F13D058DDBCF1350FD7D0BCF1360FA2
:107704004AD12846FDF706FC0446C3B2042BDAD15D
:10771400042205A92846FDF7C9FCD4E72846FDF74D
:10772400F9FBC3B2042B1AD1CEB12846FDF7F2FB04
:10773400000630602846FDF7EDFB336803EB004399
:1077440033602846FDF7E6FB336803EB0023336020
:107754002846FDF7DFFB336803443360B7E7C1B263
:107764002846FDF7A9FCB2E72846FDF7D3FB0446FB
:10777400C3B2042B04D0E1B22846FDF79DFCA6E772
:10778400042203A92846FDF791FCF4E7042204A986
:107794002846FDF78BFC14E02846FDF7BBFBC1B27D
:1077A4002846FDF789FC92E7BCF1010FDCD0BCF15F
:1077B400030FF1D12846FDF7ADFB0446C3B2042BF9
:1077C400E4D0E1B22846FDF777FC80E70FB1059BD2
:1077D4003B60049B039A06994046FEF7A2FE18E715
:1077E4004FF00D0915E74FF00D0912E702010600ED
:1077F400E0AB00206382536330B587B00446FDF7E5
:10780400A4FA2046FDF707FB08B907B030BD03A86A
:10781400FEF780FE012302930023019394F858306D
:10782400052B17D801A252F823F000BF0F780008E7
:10783400497800087F780008597800087F780008A4
:107844007F780008002301AA03A92046FFF7C6FE9B
:10785400022805D02046FDF75DFB0028FADAD4E7BC
:10786400636D049A5A60019B039A03212046FFF733
:1078740045FE022384F85830ECE702AB01AA03A9C1
:107884002046FFF7ABFE052807D00628E2D1626D3B
:107894000023136084F85830DCE7636D06AA12E90C
:1078A400070083E80700019B2365029D02F00EFD9B
:1078B4004FF4FA7303FB0503236402F007FD40F25F
:1078C4006B3303FB0503636402F000FD4FF47A732A
:1078D40003FB0503A364256C02F0F8FC85422CBF6E
:1078E4000025012584F84C50032384F85830B1E76F
:1078F40008B52030FFF72EF808BD000010B5044687
:107904002030FFF727F800B110BD02F0DFFC4FF67E
:10791400FE7398429CBF002384F84C302046FFF746
:107924006BFF94F85830052B20D8DFE803F00323CD
:107934002336526E02F0CAFC3B4BA3FB00231B0B05
:1079440041F2883202FB1300B0F57A7F0ED2374B36
:10795400D86903689B6C9847E06500231A460121A7
:107964002046FFF7CBFD012384F858302046FDF76D
:10797400ECF9C9E702F0AAFC2B4BA3FB00231B0B79
:1079840041F2883202FB1300B0F57A6FEED900237E
:1079940084F85830626D1360E8E702F097FC236CBA
:1079A4009842E3D994F84C30002BDFD1042384F8B7
:1079B400583002F08BFC636C984284BF012384F836
:1079C4004C30626D236D126803212046FFF796FD4B
:1079D400CCE702F07BFC636C9842C7D994F84C3036
:1079E400002BC3D1052384F8583002F06FFCA36C3C
:1079F400984284BF012384F84C30626D00231268DE
:107A040003212046FFF77AFDB0E702F05FFCA36C88
:107A14009842ABD994F84C30002BA7D1626D136017
:107A240084F85830A2E700BF5917B7D1E0AB002063
:107A34002DE9F04104460F461E464FF6FF730380BE
:107A4400002585704560069B0363079B436300F133
:107A5400380811464046FDF783F9A4F858703246B9
:107A6400414604F15C00FEF7BDFFA4F87E5084F8A3
:107A740080502046BDE8F08108B5836803B908BD8D
:107A84004FF48A42B0F858105C30FEF7C8FFF6E7AE
:107A94002DE9F04182B08378032B5BD00446154670
:107AA400012383708160FFF7E7FF04F10C072022B4
:107AB4002946384604F00EFB002584F82C50A4F81F
:107AC4007C5002F003FC00F51C501030234BA3FB48
